{
  "_format": "hh-sol-artifact-1",
  "contractName": "Doc",
  "sourceName": "contracts/Doc.sol",
  "abi": [
    {
      "inputs": [],
      "stateMutability": "nonpayable",
      "type": "constructor"
    },
    {
      "anonymous": false,
      "inputs": [
        {
          "indexed": true,
          "internalType": "address",
          "name": "owner",
          "type": "address"
        },
        {
          "indexed": true,
          "internalType": "address",
          "name": "approved",
          "type": "address"
        },
        {
          "indexed": true,
          "internalType": "uint256",
          "name": "tokenId",
          "type": "uint256"
        }
      ],
      "name": "Approval",
      "type": "event"
    },
    {
      "anonymous": false,
      "inputs": [
        {
          "indexed": true,
          "internalType": "address",
          "name": "owner",
          "type": "address"
        },
        {
          "indexed": true,
          "internalType": "address",
          "name": "operator",
          "type": "address"
        },
        {
          "indexed": false,
          "internalType": "bool",
          "name": "approved",
          "type": "bool"
        }
      ],
      "name": "ApprovalForAll",
      "type": "event"
    },
    {
      "anonymous": false,
      "inputs": [
        {
          "indexed": true,
          "internalType": "address",
          "name": "from",
          "type": "address"
        },
        {
          "indexed": true,
          "internalType": "address",
          "name": "to",
          "type": "address"
        },
        {
          "indexed": true,
          "internalType": "uint256",
          "name": "tokenId",
          "type": "uint256"
        }
      ],
      "name": "Transfer",
      "type": "event"
    },
    {
      "inputs": [
        {
          "internalType": "address",
          "name": "to",
          "type": "address"
        },
        {
          "internalType": "uint256",
          "name": "tokenId",
          "type": "uint256"
        }
      ],
      "name": "approve",
      "outputs": [],
      "stateMutability": "nonpayable",
      "type": "function"
    },
    {
      "inputs": [
        {
          "internalType": "address",
          "name": "owner",
          "type": "address"
        }
      ],
      "name": "balanceOf",
      "outputs": [
        {
          "internalType": "uint256",
          "name": "",
          "type": "uint256"
        }
      ],
      "stateMutability": "view",
      "type": "function"
    },
    {
      "inputs": [
        {
          "internalType": "address",
          "name": "newowner",
          "type": "address"
        },
        {
          "internalType": "string",
          "name": "tokenURI",
          "type": "string"
        }
      ],
      "name": "docuMint",
      "outputs": [
        {
          "internalType": "uint256",
          "name": "",
          "type": "uint256"
        }
      ],
      "stateMutability": "nonpayable",
      "type": "function"
    },
    {
      "inputs": [],
      "name": "entity",
      "outputs": [
        {
          "internalType": "uint256",
          "name": "",
          "type": "uint256"
        }
      ],
      "stateMutability": "view",
      "type": "function"
    },
    {
      "inputs": [
        {
          "internalType": "uint256",
          "name": "tokenId",
          "type": "uint256"
        }
      ],
      "name": "getApproved",
      "outputs": [
        {
          "internalType": "address",
          "name": "",
          "type": "address"
        }
      ],
      "stateMutability": "view",
      "type": "function"
    },
    {
      "inputs": [
        {
          "internalType": "address",
          "name": "owner",
          "type": "address"
        },
        {
          "internalType": "address",
          "name": "operator",
          "type": "address"
        }
      ],
      "name": "isApprovedForAll",
      "outputs": [
        {
          "internalType": "bool",
          "name": "",
          "type": "bool"
        }
      ],
      "stateMutability": "view",
      "type": "function"
    },
    {
      "inputs": [
        {
          "internalType": "address",
          "name": "newowner",
          "type": "address"
        }
      ],
      "name": "mintVerify",
      "outputs": [
        {
          "internalType": "uint256",
          "name": "",
          "type": "uint256"
        }
      ],
      "stateMutability": "view",
      "type": "function"
    },
    {
      "inputs": [],
      "name": "name",
      "outputs": [
        {
          "internalType": "string",
          "name": "",
          "type": "string"
        }
      ],
      "stateMutability": "view",
      "type": "function"
    },
    {
      "inputs": [
        {
          "internalType": "uint256",
          "name": "tokenId",
          "type": "uint256"
        }
      ],
      "name": "ownerOf",
      "outputs": [
        {
          "internalType": "address",
          "name": "",
          "type": "address"
        }
      ],
      "stateMutability": "view",
      "type": "function"
    },
    {
      "inputs": [
        {
          "internalType": "address",
          "name": "from",
          "type": "address"
        },
        {
          "internalType": "address",
          "name": "to",
          "type": "address"
        },
        {
          "internalType": "uint256",
          "name": "tokenId",
          "type": "uint256"
        }
      ],
      "name": "safeTransferFrom",
      "outputs": [],
      "stateMutability": "nonpayable",
      "type": "function"
    },
    {
      "inputs": [
        {
          "internalType": "address",
          "name": "from",
          "type": "address"
        },
        {
          "internalType": "address",
          "name": "to",
          "type": "address"
        },
        {
          "internalType": "uint256",
          "name": "tokenId",
          "type": "uint256"
        },
        {
          "internalType": "bytes",
          "name": "_data",
          "type": "bytes"
        }
      ],
      "name": "safeTransferFrom",
      "outputs": [],
      "stateMutability": "nonpayable",
      "type": "function"
    },
    {
      "inputs": [
        {
          "internalType": "address",
          "name": "operator",
          "type": "address"
        },
        {
          "internalType": "bool",
          "name": "approved",
          "type": "bool"
        }
      ],
      "name": "setApprovalForAll",
      "outputs": [],
      "stateMutability": "nonpayable",
      "type": "function"
    },
    {
      "inputs": [
        {
          "internalType": "bytes4",
          "name": "interfaceId",
          "type": "bytes4"
        }
      ],
      "name": "supportsInterface",
      "outputs": [
        {
          "internalType": "bool",
          "name": "",
          "type": "bool"
        }
      ],
      "stateMutability": "view",
      "type": "function"
    },
    {
      "inputs": [],
      "name": "symbol",
      "outputs": [
        {
          "internalType": "string",
          "name": "",
          "type": "string"
        }
      ],
      "stateMutability": "view",
      "type": "function"
    },
    {
      "inputs": [
        {
          "internalType": "uint256",
          "name": "tokenId",
          "type": "uint256"
        }
      ],
      "name": "tokenURI",
      "outputs": [
        {
          "internalType": "string",
          "name": "",
          "type": "string"
        }
      ],
      "stateMutability": "view",
      "type": "function"
    },
    {
      "inputs": [
        {
          "internalType": "address",
          "name": "from",
          "type": "address"
        },
        {
          "internalType": "address",
          "name": "to",
          "type": "address"
        },
        {
          "internalType": "uint256",
          "name": "tokenId",
          "type": "uint256"
        }
      ],
      "name": "transferFrom",
      "outputs": [],
      "stateMutability": "nonpayable",
      "type": "function"
    },
    {
      "inputs": [
        {
          "internalType": "address",
          "name": "",
          "type": "address"
        }
      ],
      "name": "users",
      "outputs": [
        {
          "internalType": "address",
          "name": "curruser",
          "type": "address"
        },
        {
          "internalType": "uint256",
          "name": "tokenid",
          "type": "uint256"
        }
      ],
      "stateMutability": "view",
      "type": "function"
    },
    {
      "inputs": [],
      "name": "verify",
      "outputs": [
        {
          "internalType": "uint256",
          "name": "",
          "type": "uint256"
        }
      ],
      "stateMutability": "view",
      "type": "function"
    }
  ],
  "bytecode": "0x60806040523480156200001157600080fd5b506040518060400160405280600381526020017f446f6300000000000000000000000000000000000000000000000000000000008152506040518060400160405280600381526020017f445554000000000000000000000000000000000000000000000000000000000081525081600090805190602001906200009692919062000139565b508060019080519060200190620000af92919062000139565b50505033600860003373ffffffffffffffffffffffffffffffffffffffff1673ffffffffffffffffffffffffffffffffffffffff16815260200190815260200160002060000160006101000a81548173ffffffffffffffffffffffffffffffffffffffff021916908373ffffffffffffffffffffffffffffffffffffffff1602179055506200024e565b8280546200014790620001e9565b90600052602060002090601f0160209004810192826200016b5760008555620001b7565b82601f106200018657805160ff1916838001178555620001b7565b82800160010185558215620001b7579182015b82811115620001b657825182559160200191906001019062000199565b5b509050620001c69190620001ca565b5090565b5b80821115620001e5576000816000905550600101620001cb565b5090565b600060028204905060018216806200020257607f821691505b602082108114156200021957620002186200021f565b5b50919050565b7f4e487b7100000000000000000000000000000000000000000000000000000000600052602260045260246000fd5b613274806200025e6000396000f3fe608060405234801561001057600080fd5b50600436106101165760003560e01c80636cdbbc66116100a2578063a87430ba11610071578063a87430ba14610305578063b88d4fde14610336578063c87b56dd14610352578063e985e9c514610382578063fc735e99146103b257610116565b80636cdbbc661461027d57806370a082311461029b57806395d89b41146102cb578063a22cb465146102e957610116565b80631accc5fb116100e95780631accc5fb146101b557806323b872dd146101e557806342842e0e146102015780636352211e1461021d578063677e071d1461024d57610116565b806301ffc9a71461011b57806306fdde031461014b578063081812fc14610169578063095ea7b314610199575b600080fd5b610135600480360381019061013091906122c8565b6103d0565b60405161014291906126f7565b60405180910390f35b6101536104b2565b6040516101609190612712565b60405180910390f35b610183600480360381019061017e919061231a565b610544565b6040516101909190612667565b60405180910390f35b6101b360048036038101906101ae919061228c565b6105c9565b005b6101cf60048036038101906101ca91906120cd565b6106e1565b6040516101dc9190612964565b60405180910390f35b6101ff60048036038101906101fa9190612132565b61072d565b005b61021b60048036038101906102169190612132565b61078d565b005b6102376004803603810190610232919061231a565b6107ad565b6040516102449190612667565b60405180910390f35b61026760048036038101906102629190612238565b61085f565b6040516102749190612964565b60405180910390f35b610285610a69565b6040516102929190612964565b60405180910390f35b6102b560048036038101906102b091906120cd565b610b7e565b6040516102c29190612964565b60405180910390f35b6102d3610c36565b6040516102e09190612712565b60405180910390f35b61030360048036038101906102fe91906121fc565b610cc8565b005b61031f600480360381019061031a91906120cd565b610cde565b60405161032d9291906126ce565b60405180910390f35b610350600480360381019061034b9190612181565b610d22565b005b61036c6004803603810190610367919061231a565b610d84565b6040516103799190612712565b60405180910390f35b61039c600480360381019061039791906120f6565b610ed6565b6040516103a991906126f7565b60405180910390f35b6103ba610f6a565b6040516103c79190612964565b60405180910390f35b60007f80ac58cd000000000000000000000000000000000000000000000000000000007bffffffffffffffffffffffffffffffffffffffffffffffffffffffff1916827bffffffffffffffffffffffffffffffffffffffffffffffffffffffff1916148061049b57507f5b5e139f000000000000000000000000000000000000000000000000000000007bffffffffffffffffffffffffffffffffffffffffffffffffffffffff1916827bffffffffffffffffffffffffffffffffffffffffffffffffffffffff1916145b806104ab57506104aa82610fb4565b5b9050919050565b6060600080546104c190612bba565b80601f01602080910402602001604051908101604052809291908181526020018280546104ed90612bba565b801561053a5780601f1061050f5761010080835404028352916020019161053a565b820191906000526020600020905b81548152906001019060200180831161051d57829003601f168201915b5050505050905090565b600061054f8261101e565b61058e576040517f08c379a0000000000000000000000000000000000000000000000000000000008152600401610585906128e4565b60405180910390fd5b6004600083815260200190815260200160002060009054906101000a900473ffffffffffffffffffffffffffffffffffffffff169050919050565b60006105d4826107ad565b90508073ffffffffffffffffffffffffffffffffffffffff168373ffffffffffffffffffffffffffffffffffffffff161415610645576040517f08c379a000000000000000000000000000000000000000000000000000000000815260040161063c90612924565b60405180910390fd5b8073ffffffffffffffffffffffffffffffffffffffff1661066461108a565b73ffffffffffffffffffffffffffffffffffffffff16148061069357506106928161068d61108a565b610ed6565b5b6106d2576040517f08c379a00000000000000000000000000000000000000000000000000000000081526004016106c990612824565b60405180910390fd5b6106dc8383611092565b505050565b6000600860008373ffffffffffffffffffffffffffffffffffffffff1673ffffffffffffffffffffffffffffffffffffffff168152602001908152602001600020600101549050919050565b61073e61073861108a565b8261114b565b61077d576040517f08c379a000000000000000000000000000000000000000000000000000000000815260040161077490612944565b60405180910390fd5b610788838383611229565b505050565b6107a883838360405180602001604052806000815250610d22565b505050565b6000806002600084815260200190815260200160002060009054906101000a900473ffffffffffffffffffffffffffffffffffffffff169050600073ffffffffffffffffffffffffffffffffffffffff168173ffffffffffffffffffffffffffffffffffffffff161415610856576040517f08c379a000000000000000000000000000000000000000000000000000000000815260040161084d90612864565b60405180910390fd5b80915050919050565b60006108e26040518060400160405280601081526020017f636865636b2049442065786973743a2000000000000000000000000000000000815250600860008673ffffffffffffffffffffffffffffffffffffffff1673ffffffffffffffffffffffffffffffffffffffff16815260200190815260200160002060010154611490565b3373ffffffffffffffffffffffffffffffffffffffff163273ffffffffffffffffffffffffffffffffffffffff1614801561095f57506000600860008573ffffffffffffffffffffffffffffffffffffffff1673ffffffffffffffffffffffffffffffffffffffff16815260200190815260200160002060010154145b15610a1f5761096e600761152c565b600061097a6007611542565b90506109868482611550565b610990818461172a565b80600860008673ffffffffffffffffffffffffffffffffffffffff1673ffffffffffffffffffffffffffffffffffffffff16815260200190815260200160002060010181905550610a166040518060400160405280600681526020017f4e6577204944000000000000000000000000000000000000000000000000000081525082611490565b80915050610a63565b610a5d6040518060400160405280601381526020017f43616e277420626520616464656420313030300000000000000000000000000081525061179e565b6103e890505b92915050565b6000610ad6600860003373ffffffffffffffffffffffffffffffffffffffff1673ffffffffffffffffffffffffffffffffffffffff16815260200190815260200160002060000160009054906101000a900473ffffffffffffffffffffffffffffffffffffffff16611837565b600860003373ffffffffffffffffffffffffffffffffffffffff1673ffffffffffffffffffffffffffffffffffffffff16815260200190815260200160002060000160009054906101000a900473ffffffffffffffffffffffffffffffffffffffff1673ffffffffffffffffffffffffffffffffffffffff163273ffffffffffffffffffffffffffffffffffffffff161415610b755760059050610b7b565b61053990505b90565b60008073ffffffffffffffffffffffffffffffffffffffff168273ffffffffffffffffffffffffffffffffffffffff161415610bef576040517f08c379a0000000000000000000000000000000000000000000000000000000008152600401610be690612844565b60405180910390fd5b600360008373ffffffffffffffffffffffffffffffffffffffff1673ffffffffffffffffffffffffffffffffffffffff168152602001908152602001600020549050919050565b606060018054610c4590612bba565b80601f0160208091040260200160405190810160405280929190818152602001828054610c7190612bba565b8015610cbe5780601f10610c9357610100808354040283529160200191610cbe565b820191906000526020600020905b815481529060010190602001808311610ca157829003601f168201915b5050505050905090565b610cda610cd361108a565b83836118d0565b5050565b60086020528060005260406000206000915090508060000160009054906101000a900473ffffffffffffffffffffffffffffffffffffffff16908060010154905082565b610d33610d2d61108a565b8361114b565b610d72576040517f08c379a0000000000000000000000000000000000000000000000000000000008152600401610d6990612944565b60405180910390fd5b610d7e84848484611a3d565b50505050565b6060610d8f8261101e565b610dce576040517f08c379a0000000000000000000000000000000000000000000000000000000008152600401610dc5906128c4565b60405180910390fd5b6000600660008481526020019081526020016000208054610dee90612bba565b80601f0160208091040260200160405190810160405280929190818152602001828054610e1a90612bba565b8015610e675780601f10610e3c57610100808354040283529160200191610e67565b820191906000526020600020905b815481529060010190602001808311610e4a57829003601f168201915b505050505090506000610e78611a99565b9050600081511415610e8e578192505050610ed1565b600082511115610ec3578082604051602001610eab929190612643565b60405160208183030381529060405292505050610ed1565b610ecc84611ab0565b925050505b919050565b6000600560008473ffffffffffffffffffffffffffffffffffffffff1673ffffffffffffffffffffffffffffffffffffffff16815260200190815260200160002060008373ffffffffffffffffffffffffffffffffffffffff1673ffffffffffffffffffffffffffffffffffffffff16815260200190815260200160002060009054906101000a900460ff16905092915050565b6000600860003373ffffffffffffffffffffffffffffffffffffffff1673ffffffffffffffffffffffffffffffffffffffff16815260200190815260200160002060010154905090565b60007f01ffc9a7000000000000000000000000000000000000000000000000000000007bffffffffffffffffffffffffffffffffffffffffffffffffffffffff1916827bffffffffffffffffffffffffffffffffffffffffffffffffffffffff1916149050919050565b60008073ffffffffffffffffffffffffffffffffffffffff166002600084815260200190815260200160002060009054906101000a900473ffffffffffffffffffffffffffffffffffffffff1673ffffffffffffffffffffffffffffffffffffffff1614159050919050565b600033905090565b816004600083815260200190815260200160002060006101000a81548173ffffffffffffffffffffffffffffffffffffffff021916908373ffffffffffffffffffffffffffffffffffffffff160217905550808273ffffffffffffffffffffffffffffffffffffffff16611105836107ad565b73ffffffffffffffffffffffffffffffffffffffff167f8c5be1e5ebec7d5bd14f71427d1e84f3dd0314c0f7b2291e5b200ac8c7c3b92560405160405180910390a45050565b60006111568261101e565b611195576040517f08c379a000000000000000000000000000000000000000000000000000000000815260040161118c90612804565b60405180910390fd5b60006111a0836107ad565b90508073ffffffffffffffffffffffffffffffffffffffff168473ffffffffffffffffffffffffffffffffffffffff16148061120f57508373ffffffffffffffffffffffffffffffffffffffff166111f784610544565b73ffffffffffffffffffffffffffffffffffffffff16145b80611220575061121f8185610ed6565b5b91505092915050565b8273ffffffffffffffffffffffffffffffffffffffff16611249826107ad565b73ffffffffffffffffffffffffffffffffffffffff161461129f576040517f08c379a000000000000000000000000000000000000000000000000000000000815260040161129690612784565b60405180910390fd5b600073ffffffffffffffffffffffffffffffffffffffff168273ffffffffffffffffffffffffffffffffffffffff16141561130f576040517f08c379a0000000000000000000000000000000000000000000000000000000008152600401611306906127c4565b60405180910390fd5b61131a838383611b57565b611325600082611092565b6001600360008573ffffffffffffffffffffffffffffffffffffffff1673ffffffffffffffffffffffffffffffffffffffff16815260200190815260200160002060008282546113759190612ad0565b925050819055506001600360008473ffffffffffffffffffffffffffffffffffffffff1673ffffffffffffffffffffffffffffffffffffffff16815260200190815260200160002060008282546113cc9190612a49565b92505081905550816002600083815260200190815260200160002060006101000a81548173ffffffffffffffffffffffffffffffffffffffff021916908373ffffffffffffffffffffffffffffffffffffffff160217905550808273ffffffffffffffffffffffffffffffffffffffff168473ffffffffffffffffffffffffffffffffffffffff167fddf252ad1be2c89b69c2b068fc378daa952ba7f163c4a11628f55a4df523b3ef60405160405180910390a461148b838383611b5c565b505050565b61152882826040516024016114a6929190612734565b6040516020818303038152906040527f9710a9d0000000000000000000000000000000000000000000000000000000007bffffffffffffffffffffffffffffffffffffffffffffffffffffffff19166020820180517bffffffffffffffffffffffffffffffffffffffffffffffffffffffff8381831617835250505050611b61565b5050565b6001816000016000828254019250508190555050565b600081600001549050919050565b600073ffffffffffffffffffffffffffffffffffffffff168273ffffffffffffffffffffffffffffffffffffffff1614156115c0576040517f08c379a00000000000000000000000000000000000000000000000000000000081526004016115b7906128a4565b60405180910390fd5b6115c98161101e565b15611609576040517f08c379a0000000000000000000000000000000000000000000000000000000008152600401611600906127a4565b60405180910390fd5b61161560008383611b57565b6001600360008473ffffffffffffffffffffffffffffffffffffffff1673ffffffffffffffffffffffffffffffffffffffff16815260200190815260200160002060008282546116659190612a49565b92505081905550816002600083815260200190815260200160002060006101000a81548173ffffffffffffffffffffffffffffffffffffffff021916908373ffffffffffffffffffffffffffffffffffffffff160217905550808273ffffffffffffffffffffffffffffffffffffffff16600073ffffffffffffffffffffffffffffffffffffffff167fddf252ad1be2c89b69c2b068fc378daa952ba7f163c4a11628f55a4df523b3ef60405160405180910390a461172660008383611b5c565b5050565b6117338261101e565b611772576040517f08c379a000000000000000000000000000000000000000000000000000000000815260040161176990612884565b60405180910390fd5b80600660008481526020019081526020016000209080519060200190611799929190611ef1565b505050565b611834816040516024016117b29190612712565b6040516020818303038152906040527f41304fac000000000000000000000000000000000000000000000000000000007bffffffffffffffffffffffffffffffffffffffffffffffffffffffff19166020820180517bffffffffffffffffffffffffffffffffffffffffffffffffffffffff8381831617835250505050611b61565b50565b6118cd8160405160240161184b9190612667565b6040516020818303038152906040527f2c2ecbc2000000000000000000000000000000000000000000000000000000007bffffffffffffffffffffffffffffffffffffffffffffffffffffffff19166020820180517bffffffffffffffffffffffffffffffffffffffffffffffffffffffff8381831617835250505050611b61565b50565b8173ffffffffffffffffffffffffffffffffffffffff168373ffffffffffffffffffffffffffffffffffffffff16141561193f576040517f08c379a0000000000000000000000000000000000000000000000000000000008152600401611936906127e4565b60405180910390fd5b80600560008573ffffffffffffffffffffffffffffffffffffffff1673ffffffffffffffffffffffffffffffffffffffff16815260200190815260200160002060008473ffffffffffffffffffffffffffffffffffffffff1673ffffffffffffffffffffffffffffffffffffffff16815260200190815260200160002060006101000a81548160ff0219169083151502179055508173ffffffffffffffffffffffffffffffffffffffff168373ffffffffffffffffffffffffffffffffffffffff167f17307eab39ab6107e8899845ad3d59bd9653f200f220920489ca2b5937696c3183604051611a3091906126f7565b60405180910390a3505050565b611a48848484611229565b611a5484848484611b8a565b611a93576040517f08c379a0000000000000000000000000000000000000000000000000000000008152600401611a8a90612764565b60405180910390fd5b50505050565b606060405180602001604052806000815250905090565b6060611abb8261101e565b611afa576040517f08c379a0000000000000000000000000000000000000000000000000000000008152600401611af190612904565b60405180910390fd5b6000611b04611a99565b90506000815111611b245760405180602001604052806000815250611b4f565b80611b2e84611d21565b604051602001611b3f929190612643565b6040516020818303038152906040525b915050919050565b505050565b505050565b60008151905060006a636f6e736f6c652e6c6f679050602083016000808483855afa5050505050565b6000611bab8473ffffffffffffffffffffffffffffffffffffffff16611ece565b15611d14578373ffffffffffffffffffffffffffffffffffffffff1663150b7a02611bd461108a565b8786866040518563ffffffff1660e01b8152600401611bf69493929190612682565b602060405180830381600087803b158015611c1057600080fd5b505af1925050508015611c4157506040513d601f19601f82011682018060405250810190611c3e91906122f1565b60015b611cc4573d8060008114611c71576040519150601f19603f3d011682016040523d82523d6000602084013e611c76565b606091505b50600081511415611cbc576040517f08c379a0000000000000000000000000000000000000000000000000000000008152600401611cb390612764565b60405180910390fd5b805181602001fd5b63150b7a0260e01b7bffffffffffffffffffffffffffffffffffffffffffffffffffffffff1916817bffffffffffffffffffffffffffffffffffffffffffffffffffffffff191614915050611d19565b600190505b949350505050565b60606000821415611d69576040518060400160405280600181526020017f30000000000000000000000000000000000000000000000000000000000000008152509050611ec9565b600082905060005b60008214611d9b578080611d8490612c1d565b915050600a82611d949190612a9f565b9150611d71565b60008167ffffffffffffffff811115611ddd577f4e487b7100000000000000000000000000000000000000000000000000000000600052604160045260246000fd5b6040519080825280601f01601f191660200182016040528015611e0f5781602001600182028036833780820191505090505b5090505b60008514611ec257600182611e289190612ad0565b9150600a85611e379190612c66565b6030611e439190612a49565b60f81b818381518110611e7f577f4e487b7100000000000000000000000000000000000000000000000000000000600052603260045260246000fd5b60200101907effffffffffffffffffffffffffffffffffffffffffffffffffffffffffffff1916908160001a905350600a85611ebb9190612a9f565b9450611e13565b8093505050505b919050565b6000808273ffffffffffffffffffffffffffffffffffffffff163b119050919050565b828054611efd90612bba565b90600052602060002090601f016020900481019282611f1f5760008555611f66565b82601f10611f3857805160ff1916838001178555611f66565b82800160010185558215611f66579182015b82811115611f65578251825591602001919060010190611f4a565b5b509050611f739190611f77565b5090565b5b80821115611f90576000816000905550600101611f78565b5090565b6000611fa7611fa2846129a4565b61297f565b905082815260208101848484011115611fbf57600080fd5b611fca848285612b78565b509392505050565b6000611fe5611fe0846129d5565b61297f565b905082815260208101848484011115611ffd57600080fd5b612008848285612b78565b509392505050565b60008135905061201f816131e2565b92915050565b600081359050612034816131f9565b92915050565b60008135905061204981613210565b92915050565b60008151905061205e81613210565b92915050565b600082601f83011261207557600080fd5b8135612085848260208601611f94565b91505092915050565b600082601f83011261209f57600080fd5b81356120af848260208601611fd2565b91505092915050565b6000813590506120c781613227565b92915050565b6000602082840312156120df57600080fd5b60006120ed84828501612010565b91505092915050565b6000806040838503121561210957600080fd5b600061211785828601612010565b925050602061212885828601612010565b9150509250929050565b60008060006060848603121561214757600080fd5b600061215586828701612010565b935050602061216686828701612010565b9250506040612177868287016120b8565b9150509250925092565b6000806000806080858703121561219757600080fd5b60006121a587828801612010565b94505060206121b687828801612010565b93505060406121c7878288016120b8565b925050606085013567ffffffffffffffff8111156121e457600080fd5b6121f087828801612064565b91505092959194509250565b6000806040838503121561220f57600080fd5b600061221d85828601612010565b925050602061222e85828601612025565b9150509250929050565b6000806040838503121561224b57600080fd5b600061225985828601612010565b925050602083013567ffffffffffffffff81111561227657600080fd5b6122828582860161208e565b9150509250929050565b6000806040838503121561229f57600080fd5b60006122ad85828601612010565b92505060206122be858286016120b8565b9150509250929050565b6000602082840312156122da57600080fd5b60006122e88482850161203a565b91505092915050565b60006020828403121561230357600080fd5b60006123118482850161204f565b91505092915050565b60006020828403121561232c57600080fd5b600061233a848285016120b8565b91505092915050565b61234c81612b04565b82525050565b61235b81612b16565b82525050565b600061236c82612a06565b6123768185612a1c565b9350612386818560208601612b87565b61238f81612d53565b840191505092915050565b60006123a582612a11565b6123af8185612a2d565b93506123bf818560208601612b87565b6123c881612d53565b840191505092915050565b60006123de82612a11565b6123e88185612a3e565b93506123f8818560208601612b87565b80840191505092915050565b6000612411603283612a2d565b915061241c82612d64565b604082019050919050565b6000612434602583612a2d565b915061243f82612db3565b604082019050919050565b6000612457601c83612a2d565b915061246282612e02565b602082019050919050565b600061247a602483612a2d565b915061248582612e2b565b604082019050919050565b600061249d601983612a2d565b91506124a882612e7a565b602082019050919050565b60006124c0602c83612a2d565b91506124cb82612ea3565b604082019050919050565b60006124e3603883612a2d565b91506124ee82612ef2565b604082019050919050565b6000612506602a83612a2d565b915061251182612f41565b604082019050919050565b6000612529602983612a2d565b915061253482612f90565b604082019050919050565b600061254c602e83612a2d565b915061255782612fdf565b604082019050919050565b600061256f602083612a2d565b915061257a8261302e565b602082019050919050565b6000612592603183612a2d565b915061259d82613057565b604082019050919050565b60006125b5602c83612a2d565b91506125c0826130a6565b604082019050919050565b60006125d8602f83612a2d565b91506125e3826130f5565b604082019050919050565b60006125fb602183612a2d565b915061260682613144565b604082019050919050565b600061261e603183612a2d565b915061262982613193565b604082019050919050565b61263d81612b6e565b82525050565b600061264f82856123d3565b915061265b82846123d3565b91508190509392505050565b600060208201905061267c6000830184612343565b92915050565b60006080820190506126976000830187612343565b6126a46020830186612343565b6126b16040830185612634565b81810360608301526126c38184612361565b905095945050505050565b60006040820190506126e36000830185612343565b6126f06020830184612634565b9392505050565b600060208201905061270c6000830184612352565b92915050565b6000602082019050818103600083015261272c818461239a565b905092915050565b6000604082019050818103600083015261274e818561239a565b905061275d6020830184612634565b9392505050565b6000602082019050818103600083015261277d81612404565b9050919050565b6000602082019050818103600083015261279d81612427565b9050919050565b600060208201905081810360008301526127bd8161244a565b9050919050565b600060208201905081810360008301526127dd8161246d565b9050919050565b600060208201905081810360008301526127fd81612490565b9050919050565b6000602082019050818103600083015261281d816124b3565b9050919050565b6000602082019050818103600083015261283d816124d6565b9050919050565b6000602082019050818103600083015261285d816124f9565b9050919050565b6000602082019050818103600083015261287d8161251c565b9050919050565b6000602082019050818103600083015261289d8161253f565b9050919050565b600060208201905081810360008301526128bd81612562565b9050919050565b600060208201905081810360008301526128dd81612585565b9050919050565b600060208201905081810360008301526128fd816125a8565b9050919050565b6000602082019050818103600083015261291d816125cb565b9050919050565b6000602082019050818103600083015261293d816125ee565b9050919050565b6000602082019050818103600083015261295d81612611565b9050919050565b60006020820190506129796000830184612634565b92915050565b600061298961299a565b90506129958282612bec565b919050565b6000604051905090565b600067ffffffffffffffff8211156129bf576129be612d24565b5b6129c882612d53565b9050602081019050919050565b600067ffffffffffffffff8211156129f0576129ef612d24565b5b6129f982612d53565b9050602081019050919050565b600081519050919050565b600081519050919050565b600082825260208201905092915050565b600082825260208201905092915050565b600081905092915050565b6000612a5482612b6e565b9150612a5f83612b6e565b9250827fffffffffffffffffffffffffffffffffffffffffffffffffffffffffffffffff03821115612a9457612a93612c97565b5b828201905092915050565b6000612aaa82612b6e565b9150612ab583612b6e565b925082612ac557612ac4612cc6565b5b828204905092915050565b6000612adb82612b6e565b9150612ae683612b6e565b925082821015612af957612af8612c97565b5b828203905092915050565b6000612b0f82612b4e565b9050919050565b60008115159050919050565b60007fffffffff0000000000000000000000000000000000000000000000000000000082169050919050565b600073ffffffffffffffffffffffffffffffffffffffff82169050919050565b6000819050919050565b82818337600083830152505050565b60005b83811015612ba5578082015181840152602081019050612b8a565b83811115612bb4576000848401525b50505050565b60006002820490506001821680612bd257607f821691505b60208210811415612be657612be5612cf5565b5b50919050565b612bf582612d53565b810181811067ffffffffffffffff82111715612c1457612c13612d24565b5b80604052505050565b6000612c2882612b6e565b91507fffffffffffffffffffffffffffffffffffffffffffffffffffffffffffffffff821415612c5b57612c5a612c97565b5b600182019050919050565b6000612c7182612b6e565b9150612c7c83612b6e565b925082612c8c57612c8b612cc6565b5b828206905092915050565b7f4e487b7100000000000000000000000000000000000000000000000000000000600052601160045260246000fd5b7f4e487b7100000000000000000000000000000000000000000000000000000000600052601260045260246000fd5b7f4e487b7100000000000000000000000000000000000000000000000000000000600052602260045260246000fd5b7f4e487b7100000000000000000000000000000000000000000000000000000000600052604160045260246000fd5b6000601f19601f8301169050919050565b7f4552433732313a207472616e7366657220746f206e6f6e20455243373231526560008201527f63656976657220696d706c656d656e7465720000000000000000000000000000602082015250565b7f4552433732313a207472616e736665722066726f6d20696e636f72726563742060008201527f6f776e6572000000000000000000000000000000000000000000000000000000602082015250565b7f4552433732313a20746f6b656e20616c7265616479206d696e74656400000000600082015250565b7f4552433732313a207472616e7366657220746f20746865207a65726f2061646460008201527f7265737300000000000000000000000000000000000000000000000000000000602082015250565b7f4552433732313a20617070726f766520746f2063616c6c657200000000000000600082015250565b7f4552433732313a206f70657261746f7220717565727920666f72206e6f6e657860008201527f697374656e7420746f6b656e0000000000000000000000000000000000000000602082015250565b7f4552433732313a20617070726f76652063616c6c6572206973206e6f74206f7760008201527f6e6572206e6f7220617070726f76656420666f7220616c6c0000000000000000602082015250565b7f4552433732313a2062616c616e636520717565727920666f7220746865207a6560008201527f726f206164647265737300000000000000000000000000000000000000000000602082015250565b7f4552433732313a206f776e657220717565727920666f72206e6f6e657869737460008201527f656e7420746f6b656e0000000000000000000000000000000000000000000000602082015250565b7f45524337323155524953746f726167653a2055524920736574206f66206e6f6e60008201527f6578697374656e7420746f6b656e000000000000000000000000000000000000602082015250565b7f4552433732313a206d696e7420746f20746865207a65726f2061646472657373600082015250565b7f45524337323155524953746f726167653a2055524920717565727920666f722060008201527f6e6f6e6578697374656e7420746f6b656e000000000000000000000000000000602082015250565b7f4552433732313a20617070726f76656420717565727920666f72206e6f6e657860008201527f697374656e7420746f6b656e0000000000000000000000000000000000000000602082015250565b7f4552433732314d657461646174613a2055524920717565727920666f72206e6f60008201527f6e6578697374656e7420746f6b656e0000000000000000000000000000000000602082015250565b7f4552433732313a20617070726f76616c20746f2063757272656e74206f776e6560008201527f7200000000000000000000000000000000000000000000000000000000000000602082015250565b7f4552433732313a207472616e736665722063616c6c6572206973206e6f74206f60008201527f776e6572206e6f7220617070726f766564000000000000000000000000000000602082015250565b6131eb81612b04565b81146131f657600080fd5b50565b61320281612b16565b811461320d57600080fd5b50565b61321981612b22565b811461322457600080fd5b50565b61323081612b6e565b811461323b57600080fd5b5056fea2646970667358221220a989492d48bd64bb10eeccdeb87cd496922d4ea6f5348e0c60923e351a69968464736f6c63430008040033",
  "linkReferences": {},
  "deployedLinkReferences": {}
}