{
  "_format": "hh-sol-artifact-1",
  "contractName": "CareerFair",
  "sourceName": "contracts/CareerFair.sol",
  "abi": [
    {
      "inputs": [],
      "stateMutability": "nonpayable",
      "type": "constructor"
    },
    {
      "anonymous": false,
      "inputs": [
        {
          "indexed": false,
          "internalType": "string",
          "name": "companyName",
          "type": "string"
        }
      ],
      "name": "CompanyAdded",
      "type": "event"
    },
    {
      "inputs": [
        {
          "internalType": "string",
          "name": "_companyName",
          "type": "string"
        }
      ],
      "name": "add",
      "outputs": [
        {
          "internalType": "string",
          "name": "",
          "type": "string"
        }
      ],
      "stateMutability": "nonpayable",
      "type": "function"
    },
    {
      "inputs": [
        {
          "internalType": "uint256",
          "name": "",
          "type": "uint256"
        }
      ],
      "name": "addedCompanies",
      "outputs": [
        {
          "internalType": "string",
          "name": "",
          "type": "string"
        }
      ],
      "stateMutability": "view",
      "type": "function"
    },
    {
      "inputs": [],
      "name": "companyName",
      "outputs": [
        {
          "internalType": "string",
          "name": "",
          "type": "string"
        }
      ],
      "stateMutability": "view",
      "type": "function"
    },
    {
      "inputs": [],
      "name": "enroll",
      "outputs": [
        {
          "internalType": "string",
          "name": "",
          "type": "string"
        }
      ],
      "stateMutability": "nonpayable",
      "type": "function"
    },
    {
      "inputs": [
        {
          "internalType": "uint256",
          "name": "",
          "type": "uint256"
        }
      ],
      "name": "enrolledStudents",
      "outputs": [
        {
          "internalType": "address",
          "name": "",
          "type": "address"
        }
      ],
      "stateMutability": "view",
      "type": "function"
    },
    {
      "inputs": [],
      "name": "getAttendees",
      "outputs": [
        {
          "internalType": "address[]",
          "name": "",
          "type": "address[]"
        }
      ],
      "stateMutability": "view",
      "type": "function"
    },
    {
      "inputs": [],
      "name": "getCompanies",
      "outputs": [
        {
          "internalType": "string[]",
          "name": "",
          "type": "string[]"
        }
      ],
      "stateMutability": "view",
      "type": "function"
    },
    {
      "inputs": [],
      "name": "owner",
      "outputs": [
        {
          "internalType": "address",
          "name": "",
          "type": "address"
        }
      ],
      "stateMutability": "view",
      "type": "function"
    },
    {
      "inputs": [],
      "name": "unEnroll",
      "outputs": [
        {
          "internalType": "string",
          "name": "",
          "type": "string"
        }
      ],
      "stateMutability": "nonpayable",
      "type": "function"
    }
  ],
  "bytecode": "0x60806040523480156200001157600080fd5b50336000806101000a81548173ffffffffffffffffffffffffffffffffffffffff021916908373ffffffffffffffffffffffffffffffffffffffff160217905550600380600181540180825580915050600190039060005260206000200160006040518060400160405280600681526020017f416d617a6f6e000000000000000000000000000000000000000000000000000081525090919091509080519060200190620000c192919062000368565b50600380600181540180825580915050600190039060005260206000200160006040518060400160405280600681526020017f476f6f676c650000000000000000000000000000000000000000000000000000815250909190915090805190602001906200013192919062000368565b50600380600181540180825580915050600190039060005260206000200160006040518060400160405280600581526020017f4170706c6500000000000000000000000000000000000000000000000000000081525090919091509080519060200190620001a192919062000368565b50600380600181540180825580915050600190039060005260206000200160006040518060400160405280600981526020017f4d6963726f736f66740000000000000000000000000000000000000000000000815250909190915090805190602001906200021192919062000368565b50600380600181540180825580915050600190039060005260206000200160006040518060400160405280600481526020017f4d65746100000000000000000000000000000000000000000000000000000000815250909190915090805190602001906200028192919062000368565b50600380600181540180825580915050600190039060005260206000200160006040518060400160405280600681526020017f47656d696e69000000000000000000000000000000000000000000000000000081525090919091509080519060200190620002f192919062000368565b50600380600181540180825580915050600190039060005260206000200160006040518060400160405280600881526020017f5365637572654564000000000000000000000000000000000000000000000000815250909190915090805190602001906200036192919062000368565b506200047d565b828054620003769062000418565b90600052602060002090601f0160209004810192826200039a5760008555620003e6565b82601f10620003b557805160ff1916838001178555620003e6565b82800160010185558215620003e6579182015b82811115620003e5578251825591602001919060010190620003c8565b5b509050620003f59190620003f9565b5090565b5b8082111562000414576000816000905550600101620003fa565b5090565b600060028204905060018216806200043157607f821691505b602082108114156200044857620004476200044e565b5b50919050565b7f4e487b7100000000000000000000000000000000000000000000000000000000600052602260045260246000fd5b6113ad806200048d6000396000f3fe608060405234801561001057600080fd5b50600436106100935760003560e01c80638da5cb5b116100665780638da5cb5b14610122578063b0c8f9dc14610140578063c614f1e414610170578063e65f2a7e146101a0578063f5ec2eed146101be57610093565b80630c0b66911461009857806324b4f2d2146100b65780634165a1bb146100d4578063492dc322146100f2575b600080fd5b6100a06101dc565b6040516100ad9190610fac565b60405180910390f35b6100be6102b5565b6040516100cb9190610fce565b60405180910390f35b6100dc61055f565b6040516100e99190610f8a565b60405180910390f35b61010c60048036038101906101079190610ca7565b6105ed565b6040516101199190610fce565b60405180910390f35b61012a610699565b6040516101379190610f6f565b60405180910390f35b61015a60048036038101906101559190610c66565b6106bd565b6040516101679190610fce565b60405180910390f35b61018a60048036038101906101859190610ca7565b610872565b6040516101979190610f6f565b60405180910390f35b6101a86108b1565b6040516101b59190610fce565b60405180910390f35b6101c6610ab8565b6040516101d39190610fce565b60405180910390f35b60606003805480602002602001604051908101604052809291908181526020016000905b828210156102ac57838290600052602060002001805461021f906111c2565b80601f016020809104026020016040519081016040528092919081815260200182805461024b906111c2565b80156102985780601f1061026d57610100808354040283529160200191610298565b820191906000526020600020905b81548152906001019060200180831161027b57829003601f168201915b505050505081526020019060010190610200565b50505050905090565b606060003390506000805b60028054905081101561050e57600060028281548110610309577f4e487b7100000000000000000000000000000000000000000000000000000000600052603260045260246000fd5b9060005260206000200160009054906101000a900473ffffffffffffffffffffffffffffffffffffffff166040516020016103449190610f26565b60405160208183030381529060405280519060200120905060008460405160200161036f9190610f26565b604051602081830303815290604052805190602001209050818114156104f957600260016002805490506103a39190611110565b815481106103da577f4e487b7100000000000000000000000000000000000000000000000000000000600052603260045260246000fd5b9060005260206000200160009054906101000a900473ffffffffffffffffffffffffffffffffffffffff166002848154811061043f577f4e487b7100000000000000000000000000000000000000000000000000000000600052603260045260246000fd5b9060005260206000200160006101000a81548173ffffffffffffffffffffffffffffffffffffffff021916908373ffffffffffffffffffffffffffffffffffffffff1602179055506001935060028054806104c3577f4e487b7100000000000000000000000000000000000000000000000000000000600052603160045260246000fd5b6001900381819060005260206000200160006101000a81549073ffffffffffffffffffffffffffffffffffffffff021916905590555b50508080610506906111f4565b9150506102c0565b5060001515811515141561053e57604051806060016040528060278152602001611324602791399250505061055c565b6040518060600160405280602d815260200161134b602d9139925050505b90565b606060028054806020026020016040519081016040528092919081815260200182805480156105e357602002820191906000526020600020905b8160009054906101000a900473ffffffffffffffffffffffffffffffffffffffff1673ffffffffffffffffffffffffffffffffffffffff1681526020019060010190808311610599575b5050505050905090565b600381815481106105fd57600080fd5b906000526020600020016000915090508054610618906111c2565b80601f0160208091040260200160405190810160405280929190818152602001828054610644906111c2565b80156106915780601f1061066657610100808354040283529160200191610691565b820191906000526020600020905b81548152906001019060200180831161067457829003601f168201915b505050505081565b60008054906101000a900473ffffffffffffffffffffffffffffffffffffffff1681565b606060008054906101000a900473ffffffffffffffffffffffffffffffffffffffff1673ffffffffffffffffffffffffffffffffffffffff163373ffffffffffffffffffffffffffffffffffffffff161461071757600080fd5b60005b60038054905081101561081d57600060038281548110610763577f4e487b7100000000000000000000000000000000000000000000000000000000600052603260045260246000fd5b9060005260206000200160405160200161077d9190610f58565b6040516020818303038152906040528051906020012090506000846040516020016107a89190610f41565b60405160208183030381529060405280519060200120905081811415610808576040518060400160405280601681526020017f436f6d70616e7920616c72656164792065786973747300000000000000000000815250935050505061086d565b50508080610815906111f4565b91505061071a565b50600382908060018154018082558091505060019003906000526020600020016000909190919091509080519060200190610859929190610b46565b506040518060200160405280600081525090505b919050565b6002818154811061088257600080fd5b906000526020600020016000915054906101000a900473ffffffffffffffffffffffffffffffffffffffff1681565b606060003390506000600280549050141561092e576002819080600181540180825580915050600190039060005260206000200160009091909190916101000a81548173ffffffffffffffffffffffffffffffffffffffff021916908373ffffffffffffffffffffffffffffffffffffffff160217905550610ab3565b60006002805490501115610ab25760005b600280549050811015610a365760028181548110610986577f4e487b7100000000000000000000000000000000000000000000000000000000600052603260045260246000fd5b9060005260206000200160009054906101000a900473ffffffffffffffffffffffffffffffffffffffff1673ffffffffffffffffffffffffffffffffffffffff168273ffffffffffffffffffffffffffffffffffffffff161415610a23576040518060400160405280601a81526020017f53747564656e7420616c7265616479207265676973746572656400000000000081525092505050610ab5565b8080610a2e906111f4565b91505061093f565b506002819080600181540180825580915050600190039060005260206000200160009091909190916101000a81548173ffffffffffffffffffffffffffffffffffffffff021916908373ffffffffffffffffffffffffffffffffffffffff16021790555060405180602001604052806000815250915050610ab5565b5b505b90565b60018054610ac5906111c2565b80601f0160208091040260200160405190810160405280929190818152602001828054610af1906111c2565b8015610b3e5780601f10610b1357610100808354040283529160200191610b3e565b820191906000526020600020905b815481529060010190602001808311610b2157829003601f168201915b505050505081565b828054610b52906111c2565b90600052602060002090601f016020900481019282610b745760008555610bbb565b82601f10610b8d57805160ff1916838001178555610bbb565b82800160010185558215610bbb579182015b82811115610bba578251825591602001919060010190610b9f565b5b509050610bc89190610bcc565b5090565b5b80821115610be5576000816000905550600101610bcd565b5090565b6000610bfc610bf784611021565b610ff0565b905082815260208101848484011115610c1457600080fd5b610c1f848285611180565b509392505050565b600082601f830112610c3857600080fd5b8135610c48848260208601610be9565b91505092915050565b600081359050610c608161130c565b92915050565b600060208284031215610c7857600080fd5b600082013567ffffffffffffffff811115610c9257600080fd5b610c9e84828501610c27565b91505092915050565b600060208284031215610cb957600080fd5b6000610cc784828501610c51565b91505092915050565b6000610cdc8383610cfc565b60208301905092915050565b6000610cf48383610e04565b905092915050565b610d0581611144565b82525050565b610d1481611144565b82525050565b610d2b610d2682611144565b61123d565b82525050565b6000610d3c82611086565b610d4681856110c1565b9350610d5183611051565b8060005b83811015610d82578151610d698882610cd0565b9750610d74836110a7565b925050600181019050610d55565b5085935050505092915050565b6000610d9a82611091565b610da481856110d2565b935083602082028501610db685611061565b8060005b85811015610df25784840389528151610dd38582610ce8565b9450610dde836110b4565b925060208a01995050600181019050610dba565b50829750879550505050505092915050565b6000610e0f8261109c565b610e1981856110e3565b9350610e2981856020860161118f565b610e32816112ee565b840191505092915050565b6000610e488261109c565b610e5281856110f4565b9350610e6281856020860161118f565b610e6b816112ee565b840191505092915050565b6000610e818261109c565b610e8b8185611105565b9350610e9b81856020860161118f565b80840191505092915050565b60008154610eb4816111c2565b610ebe8186611105565b94506001821660008114610ed95760018114610eea57610f1d565b60ff19831686528186019350610f1d565b610ef385611071565b60005b83811015610f1557815481890152600182019150602081019050610ef6565b838801955050505b50505092915050565b6000610f328284610d1a565b60148201915081905092915050565b6000610f4d8284610e76565b915081905092915050565b6000610f648284610ea7565b915081905092915050565b6000602082019050610f846000830184610d0b565b92915050565b60006020820190508181036000830152610fa48184610d31565b905092915050565b60006020820190508181036000830152610fc68184610d8f565b905092915050565b60006020820190508181036000830152610fe88184610e3d565b905092915050565b6000604051905081810181811067ffffffffffffffff82111715611017576110166112bf565b5b8060405250919050565b600067ffffffffffffffff82111561103c5761103b6112bf565b5b601f19601f8301169050602081019050919050565b6000819050602082019050919050565b6000819050602082019050919050565b60008190508160005260206000209050919050565b600081519050919050565b600081519050919050565b600081519050919050565b6000602082019050919050565b6000602082019050919050565b600082825260208201905092915050565b600082825260208201905092915050565b600082825260208201905092915050565b600082825260208201905092915050565b600081905092915050565b600061111b82611176565b915061112683611176565b92508282101561113957611138611261565b5b828203905092915050565b600061114f82611156565b9050919050565b600073ffffffffffffffffffffffffffffffffffffffff82169050919050565b6000819050919050565b82818337600083830152505050565b60005b838110156111ad578082015181840152602081019050611192565b838111156111bc576000848401525b50505050565b600060028204905060018216806111da57607f821691505b602082108114156111ee576111ed611290565b5b50919050565b60006111ff82611176565b91507fffffffffffffffffffffffffffffffffffffffffffffffffffffffffffffffff82141561123257611231611261565b5b600182019050919050565b60006112488261124f565b9050919050565b600061125a826112ff565b9050919050565b7f4e487b7100000000000000000000000000000000000000000000000000000000600052601160045260246000fd5b7f4e487b7100000000000000000000000000000000000000000000000000000000600052602260045260246000fd5b7f4e487b7100000000000000000000000000000000000000000000000000000000600052604160045260246000fd5b6000601f19601f8301169050919050565b60008160601b9050919050565b61131581611176565b811461132057600080fd5b5056fe596f7520617265206e6f7420656e726f6c6c656420696e20746865206361726565722066616972596f752068617665206265656e20756e656e726f6c6c65642066726f6d20746865206361726565722066616972a26469706673582212203e7532bb0b49a0d37c8e6d9db5f621f5f337fcc0eff27d667f848ddf5fd072fc64736f6c63430008000033",
  "linkReferences": {},
  "deployedLinkReferences": {}
}